:020000040000FA
:060000000A128A110C280F
:10000800FE00030EF1000A08F2000A128A113F28C6
:100018000A128A110F2883010A128A115928831695
:10002800031788018901831603138501860183124A
:100038000313850186017030831603138F040F1490
:100048008B170B178C160C16181218158316031716
:100058008715CF308316031399009A01831203136F
:100068009817181318168316031398168312031378
:100078008C120C120800831203138C1E4428452886
:1000880047281A0886000C1E4A284B284D282D3070
:1000980099004230F000F00B4F28000072088A00E7
:1000A800710E8300FE0E7E0E09000A128A111320BB
:1000B8000A128A115E280A128A110C2800308A0056
:0A00C8000408840A820700342D3476
:04400E00D420FF3F7C
:00000001FF
