:060000000A128A11142906
:100200008A010A140F3982073F3406345B344F34B5
:1002100066346D347D3407347F346F3477347C3406
:1002200039345E3479347134502149213A21031331
:1002300083120B1D19294521860A051D2C21851DB8
:1002400033218801242119290608000203192921D4
:100250000800081486010800051D2C29800A0008E2
:10026000002187000800851D332980030008002134
:100270008700080003138316811281110115811470
:10028000011003138312452108000C3081000B116B
:100290000800031383160F138F160F160F14080090
:1002A0000317831603178316880189010313831626
:1002B0000515851503138316061086100611861181
:1002C000031383160710871007118711071287126F
:1002D0000713871303138316081003138312850172
:0802E000860187018801080076
:04400E00C430FF3F7C
:00000001FF
