:020000040000FA
:060000000A128A110C280F
:10000800FE00030EF1000A08F2000A128A1186287F
:100018000A128A110F2883010A128A115F280330F5
:1000280083160317880089018316031305148514A2
:1000380083120313850187017030831603138F041D
:100048000F149F131F129F12831203131F179F135E
:10005800C3309F051F142130F300F30B312883169A
:10006800031307158714FA3092003F3083120313E5
:1000780097051708F0390C3897001D08F0390C3827
:100088009D001D129D120F309500CF3097050F303F
:100098009B008C100330920412158C1C5428552890
:1000A80051288C100C13831603130C170B178B177E
:1000B8008710071108000A128A1113200A128A11E0
:1000C800831203139F1869286A2864281F0CF400F8
:1000D800740C0F39013A031D722873287628C3302F
:1000E8009F057A281F08C33904389F004230F4005E
:1000F800F40B7C280000831203139F1464280A124F
:100108008A110C28831203130C1F8B288C28A32810
:100118001F0CF000700C0F39003A031D9428952825
:100128009C281E08F0000310700C7C3E9500A22845
:100138001E08F0000310700C7C3E9B000C13720824
:0C0148008A00710E8300FE0E7E0E09007E
:04400E00D420FF3F7C
:00000001FF
