:020000040000FA
:060000000A128A110E280D
:10000800FE00030EF0000408F1000A08F2000A12CC
:100018008A1148290A128A11112883132A30FD00EF
:100028000130FE00E630FF00203084000A128A11F9
:10003800C9210A128A11F901FA0183010A128A11E7
:10004800D82983120313AC01F41F2B282C2833283A
:10005800F309F409F30A0319F40AAC01AC0AF61F10
:10006800362837284028F509F609F50A0319F60A4B
:100078000130AA002A08AC06AD01AE017308740469
:100088000319472848287F28AB01AB0A56280130B6
:100098000310F30DF40DFF3E031D4C280130AA0098
:1000A8002A08AB07F41F59285A284B280130031097
:1000B800AD0DAE0DFF3E031D5B2874087602031DCF
:1000C800672873087502031C6A286B28722873084E
:1000D800F5027408031CF603F6022D140130031010
:1000E800F40CF30CFF3E031D73280130AB02031D13
:1000F8007E287F285A282C080319832884288928D1
:10010800AD09AE09AD0A0319AE0A2E08F4002D0890
:10011800F3000800831203130708AF002F08F70045
:100128006430F3000030F4007708AF00B0012F0806
:10013800F5003008F6000A128A1125200A128A11E1
:10014800730883120313B1003108B4006430F3005C
:100158000030F4007708AF00B0012F08F500300830
:10016800F6000A128A11ED200A128A117308831206
:100178000313B1003108F8000A30F3000030F4002E
:100188007808AF00B0012F08F5003008F6000A1211
:100198008A1125200A128A11730883120313B100E9
:1001A8003108B3000A30F3000030F4007808AF00DB
:1001B800B0012F08F5003008F6000A128A11ED2068
:1001C8000A128A11730883120313B1003108B200AE
:1001D800080083120313AC01F61FF328F428FB2848
:1001E800F509F609F50A0319F60AAC01AC0AF41F79
:1001F800FE28FF280429F309F409F30A0319F40A6D
:1002080073087404031909290A293929AB01AB0AAF
:10021800182901300310F30DF40DFF3E031D0E29BC
:100228000130AA002A08AB07F41F1B291C290D2935
:1002380074087602031D222973087502031C2529F8
:1002480026292C297308F5027408031CF603F60204
:1002580001300310F40CF30CFF3E031D2D2901306F
:10026800AB02031D382939291C292C0803193D29FB
:100278003E294329F509F609F50A0319F60A76080D
:10028800F4007508F30008000B1D4B294C297E2942
:1002980083120313051105143408203E84008313C8
:1002A800000888000130F9000030FA0079037A0468
:1002B800031D5F2960296B29051085143308203E2A
:1002C8008400000888000230F9000030FA0002308B
:1002D80079067A04031D712972297B298510051571
:1002E8003208203E840000088800F901FA010B1149
:1002F800FF3081000B1C8129822993298312031363
:100308000618872988298B290708013E870086183F
:100318008E298F2992290708FF3E87000B10720843
:100328008A0071088400700E8300FE0E7E0E09009C
:100338008316031788018901831603130510851096
:100348000511061486148701880183120313850199
:10035800860187018801831603130F138F160F1266
:100368000F148112811101158114011481130330B6
:100378009500161496148B170B148B158B160B11EE
:1003880008007E088A007F0882000A128A11C521A7
:100398000A128A118000840A04087D0603190034B1
:1003A800FF0A0319FE0AC9290A128A119C210A1296
:1003B8008A110A128A118E200A128A11DD290A125C
:1003C8008A110E283F3406345B344F3466346D345A
:0803D8007D3407347F346F34DB
:04400E00D420FF3F7C
:00000001FF
