:060000000A128A11182902
:10000800F000030EF100031383120C181F200B19C4
:100018002A20031383128C181920031383128C10BF
:10002800710E8300F00E700E090022181D2822148C
:1000380008002210080003138312E1308F00031315
:1000480083127C308E00A10A0C1008004C21881005
:100058000811771833287508870008153628760898
:0A006800870088140130F706080035
:100200008A010A140F3982073F3406345B344F34B5
:1002100066346D347D3407347F346F3477347C3406
:0802200039345E347934713485
:100230006D216621031383128B178B160B11031389
:1002400083168C140C14031383128C100C1052217F
:100250005A216121031383128501860187018801D8
:100260008901031383123921221C402122184721BE
:10027000312921080F39F200210E0F39F30008004F
:1002800072080021F50073080021F6000800003014
:10029000F500F6000810080003138312FD308100FA
:1002A0000B110800031383168112811101148114AC
:1002B00001150800031383121016901690101014E5
:1002C0000800031383124E309200080003138316B4
:1002D0000F138F160F120F140800031783168801CF
:1002E000890103138316071087100711871107125E
:1002F00087120713871387010313831608108810CA
:060300000811880108004D
:04400E00D430FF3F6C
:00000001FF
