:060000000A128A11182902
:10000800F000030EF100031383120B183E210B10AE
:0E0018000B193621710E8300F00E700E0900D8
:100200008A010A140F3982073F3406345B344F34B5
:1002100066346D347D3407347F346F3477347C3406
:1002200039345E3479347134502149213A21031331
:1002300060214A21432103138316033096000313E0
:10024000831206080B108B178B150B150B115821F9
:1002500003138312850186018701880105080021A7
:1002600087002E29013081000B1108000B1D362953
:100270003221F20A7208002188000800061C850A53
:10028000861C85030800031383160F138F160F12A5
:100290000F14080003138316811303138316151418
:1002A0009514151195111512951215139513080033
:1002B00003138316811281110114811401150800A2
:1002C0000317831603178316880189010313831606
:1002D0000510851005118511031383160614861465
:1002E000031383160710871007118711071287124F
:1002F0000713871303138316081088100811881139
:0A0300000812881208138813080081
:04400E00C430FF3F7C
:00000001FF
